:04000000803118280B
:100008007E14803120007F08F2000B1F1328210086
:10001800111F13282000111F132883310923720888
:100028002000FF007E10090080311A284F3084001C
:1000380080308500F0308600213087000230FF00D4
:1000480000308231DB22803183310C238031F00093
:1000580083310D238031F1004F30840082308500D8
:1000680020308600003087000030FF0040308231A9
:10007800DB2280318F30840082308500A0308600FA
:10008800003087000030FF0020308231DB227E10F4
:1000980020008331012B0034013400340134003452
:1000A80001340034013400340134003401340034A4
:1000B8000134003401340034013400340134003494
:1000C8000134003401340034013400340134003484
:1000D80001340034013400340134183401341B3441
:1000E80001341D3401341F340134233401342534E0
:1000F80001342634013427340134283401342934B6
:1001080001342A3401342A3401342B3401342C3498
:1001180001342D34013400340134303401343B349B
:100128000134443401344C340134543401345634E9
:1001380001345734013458340134593401345A34B1
:1001480001345B3401345C3401345C3401345D3493
:1001580001345E34013400340134493401345834F4
:10016800013466340134733401347C3401347F340F
:1001780001348034013482340134823401348534CA
:1001880001348634013486340134873401348834A8
:1001980001348A3401340034013461340134753453
:1001A80001348934013494340134A1340134A33442
:1001B8000134A4340134A6340134A7340134A934F9
:1001C8000134AA340134AA340134AB340134AD34D7
:1001D8000134B034013400340134783401349134BA
:1001E8000134A6340134B7340134C0340134C23484
:1001F8000134C4340134C5340134C7340134C8343B
:100208000134C9340134CA340134CC340134CF3414
:100218000134D33401340034013492340134B2341B
:100228000134C4340134D3340134DB340134DD34D3
:100238000134DE340134E0340134E2340134E4348E
:100248000134E5340134E7340134EA340134ED345F
:100258000134F234013400340134AE340134CD3485
:100268000134DE340134EC340134F3340134F6342F
:100278000134F8340134F9340134FA340134FC34EB
:100288000134FE34013400340234043402340934B5
:1002980002340F34023400340134C7340134E534F5
:1002A8000134F734013401340234073402340B3496
:1002B80002340D3402340E3402340F340234123452
:1002C800023414340234173402341B340234213417
:1002D80002342934023400340134DD340134FA3470
:1002E80001340A34023414340234193402341D340B
:1002F80002341F34023420340234223402342434C9
:10030800023427340234293402342F340234363488
:1003180002344034023400340134F23401340E34EF
:1003280002341B340234253402342B3402342E3484
:100338000234303402343134023433340234363443
:1003480002343A3402343D340234443402344B34F7
:1003580002345834023400340134053402341E3473
:1003680002342B34023433340234383402343C340B
:1003780002343E34023440340234423402344534C8
:1003880002344A3402344D340234533402345F3474
:1003980002347034023400340134163402342D34FB
:1003A80002343934023441340234463402344A3493
:1003B80002344B3402344D34023450340234533452
:1003C8000234593402345D340234663402347234EF
:1003D80002347C34023400340134243402343A3494
:1003E8000234473402344D34023451340234543424
:1003F800023456340234583402345B3402346034E4
:100408000234653402346F3402347934023480346F
:10041800023488340234003401343334023448342A
:10042800023451340234573402345B3402345E34BB
:1004380002345F34023462340234653402346A347C
:10044800023470340234803402348E3402349034EE
:10045800023494340234003401343C3402344F34CE
:100468000234583402345E3402346434023467345B
:100478000234683402346C3402346F340234743415
:1004880002347D3402349E3402349E3402349E3465
:1004980002349E340234003400340234003405340B
:1004A80000340A34003414340034333400346634ED
:1004B800003492340034CD340034003401345534DF
:1004C8000134B9340134033402347B3402341B342C
:1004D8000334E0340334003400341A340034333441
:1004E80000344D34003466340034803400349A3497
:1004F8000034B3340034CD340034E63400340034EE
:1005080001341A340134333401344D34013466343F
:1005180001347B34013400340034003400340034B6
:100528000034003400340034003400340034003423
:1005380000340034003400340034003400345834BB
:1005480002345F340234663402346F340234773450
:1005580002347D34023422008C018D018E01363044
:1005680021008C00F0308D00FF308E00CF3023004A
:100578008E00F0308D0017308C0024008D018C0126
:100588008E012100951725008C018D018E01080030
:100598008231AF2282318231F122823183310523C7
:1005A80082318231F92282318231E7220800FE004D
:1005B80012001E000130FE020030FF3B7F087E045F
:1005C80003190034DC2A013021009D0070309E00A0
:1005D8009F019B019C0111170800783021009900A8
:1005E8009A01980124009D010800A0302B00910079
:1005F8009301CD309200101408008231CC2283314F
:10060800042B163021009700080020001113080061
:040618001034103456
:020000040001F9
:04000E00E4FFFFFE0E
:00000001FF
