:08000000803102288731CC2F6A
:1004FE001034103416302100970008002B0011170D
:10050E00700892007108930010140800A0302B00A0
:10051E0091009301CD309200101408005830210044
:10052E0099009A01980124009D01080001302100D4
:10053E009D0070309E009F019B019C010800FE00F3
:10054E0012001E000130FE020030FF3B7F087E04C9
:10055E0003190034A72A8231F22282318231952288
:10056E00823182318122823182318D2282318231F9
:10057E009D220800F3007308F200F20DF20D210027
:10058E001D087206833972069D001D14000021009D
:10059E009D149D18D02A1C08F1001B08F0000800BD
:1005AE00F401F501701CDF2A7208F4077308F53D9B
:1005BE000130F235F30D890BE02A0130F136F00CE3
:1005CE00890BE52A70087104031DD92A7508F100FC
:1005DE007408F000080022008C018D018E01363067
:1005EE0021008C00F0308D00FF308E00CF302300C4
:1005FE008E00F0308D0017308C0024008D018C01A0
:10060E008E012100951725008C018D018E010800A9
:10061E00003400340034003400340034003400342C
:10062E00003400340034003400340034003400341C
:10063E000034003400340034583402345F34023451
:10064E00663402346F340234773402347D3402342B
:10065E00F700F8017808F400F50171087502031D22
:10066E003A2B700874020318532B78357707F40071
:10067E00740886008701403FF500413FF60076087A
:10068E007302031D4C2B75087202031C532B013091
:10069E00F4007408F807312B780808008231B22272
:1006AE00833102308231C122833171082000C500AE
:1006BE007008C40004308231C122833171082000D9
:1006CE00C7007008C6004508A1004408A0004708EE
:1006DE00A3004608A2008331F623833120002108AF
:1006EE00C9002008C8004908F1004808F00082310E
:1006FE0085228331582BFB01FC0176087704031900
:10070E00B12BFD01FD0AF71B962B0130F635F70DC7
:10071E00890B8D2B0130FA007A08FD078A2B0130E8
:10072E00FB35FC0D890B972B77087902031DA12B46
:10073E0076087802031CA82B7608F8027708F93B96
:10074E007B140130F736F60C890BA92B0130FD0214
:10075E00031D962B7C08F7007B08F600080000347A
:10076E00003402340034053400340A3400341434B6
:10077E000034333400346634003492340034CD34D3
:10078E0000340034013455340134B93401340334A7
:10079E0002347B3402341B340334E034033400342B
:1007AE0000341A340034333400344D34003466349B
:1007BE000034803400349A340034B3340034CD34F1
:1007CE000034E6340034003401341A340134333446
:1007DE0001344D340134663401347B34013420004D
:1007EE004B08A400A5012408F0002508F1002308F9
:1007FE00F3002208F200A03083312F238331200032
:10080E00A6002608C2004A08A400A5012408F0008C
:10081E002508F1002108F3002008F200C0308331D2
:10082E002F2383312000A6002608C3004335C03E87
:10083E00860087014335FE3EC03E84008501003FA1
:10084E00A400013FA500A409A509A40A0319A50A3D
:10085E00403F2407F600413F253DF7004335FE3E5D
:10086E00C03E86008701403FA600413FA700A60973
:10087E00A709A60A0319A70A20082607F8002108C7
:10088E00273DF90083318223833177082000BB0096
:10089E007608BA004308A400A5010530A435A50DBD
:1008AE00890B552C2408D03EA6002130253DA700EB
:1008BE00A609A709A60A0319A70A4308A800A901B1
:1008CE000530A835A90D890B682C26082807AA0023
:1008DE002708293DAB002A08F03EAC0021302B3D05
:1008EE00AD002D0D2D0CF1002C0CF0003B08F3008B
:1008FE003A08F2008231D722833170082000AE0010
:10090E007108AF00AE35AF0D4308B000B101053030
:10091E00B035B10D890B8F2C3008E03EB200FF30A0
:10092E00313DB300F030B4002130B5003208340749
:10093E00B6003308353DB7002E083607BE002F0827
:10094E00373DBF004308A400A5010530A435A50D11
:10095E00890BAD2C2408D03EA6002130253DA700E2
:10096E00A609A709A60A0319A70A4308A800A90100
:10097E000530A835A90D890BC02C26082807AA001A
:10098E002708293DAB002A08F03EAC0021302B3D54
:10099E00AD002D0D2D0CF1002C0CF0003B08F300DA
:1009AE003A08F2008231D722833170082000AE005F
:1009BE007108AF00AE35AF0D4308B000B101053080
:1009CE00B035B10D890BE72C3008E03EB200FF3098
:1009DE00313DB300F030B4002130B5003208340799
:1009EE00B6003308353DB7002E083607B8002F087D
:1009FE00373DB9004235A03E860087014235FE3EA6
:100A0E00A03E84008501003FA400013FA500A4097B
:100A1E00A509A40A0319A50A403F2407F600413F81
:100A2E00253DF7003E09A6003F09A700A60A0319B7
:100A3E00A70A38082607F0003908273DF10042358D
:100A4E00FE3EA03E86008701403FA800413FA90020
:100A5E00A809A909A80A0319A90A22082807F20059
:100A6E002308293DF3008231D72283317108F90022
:100A7E007008F80083318223833120003E08760708
:100A8E00C0003F08773DC10001302302BA30031980
:100A9E002202031C592D01302102013003192002BC
:100AAE0003185E2D4108A1004008A0000800423541
:100ABE00FE3E203E8600013087004335FE3EC03E9E
:100ACE0084008501003FA400013FA500A409A509EB
:100ADE00A40A0319A50A4335C03E84008501003FD0
:100AEE002407F600013F253DF7004235FE3E203E2D
:100AFE00840001308500003FA600013FA700A60933
:100B0E00A709A60A0319A70A4235203E8400013020
:100B1E008500003F2607F000013F273DF1004335D9
:100B2E00FE3EC03E84008501003FA800013FA900A3
:100B3E00A809A909A80A0319A90A20082807F2007A
:100B4E002108293DF3008231D72283317108F90043
:100B5E007008F800833182238331403F76072000EE
:100B6E00BC00413F773DBD0041083D02031DC12D34
:100B7E0040083C02031CC72D3D08C1003C08C000C4
:100B8E004108A1004008A0000800003401340034E0
:100B9E0001340034013400340134003401340034A3
:100BAE000134003401340034013400340134003493
:100BBE000134003401340034013400340134003483
:100BCE00013400340134003401340034013418345B
:100BDE0001341B3401341D3401341F3401342334E9
:100BEE0001342534013426340134273401342834B9
:100BFE000134293401342A3401342A3401342B349B
:100C0E0001342C3401342D340134003401343034A9
:100C1E0001343B340134443401344C340134543403
:100C2E0001345634013457340134583401345934B4
:100C3E0001345A3401345B3401345C3401345C3495
:100C4E0001345D3401345E340134003401344934EE
:100C5E0001345834013466340134733401347C3435
:100C6E0001347F34013480340134823401348234CF
:100C7E0001348534013486340134863401348734AA
:100C8E000134883401348A3401340034013461343F
:100C9E000134753401348934013494340134A1346F
:100CAE000134A3340134A4340134A6340134A734FE
:100CBE000134A9340134AA340134AA340134AB34DA
:100CCE000134AD340134B03401340034013478349D
:100CDE00013491340134A6340134B7340134C034B4
:100CEE000134C2340134C4340134C5340134C73440
:100CFE000134C8340134C9340134CA340134CC341B
:100D0E000134CF340134D3340134003401349234FD
:100D1E000134B2340134C4340134D3340134DB34FD
:100D2E000134DD340134DE340134E0340134E23494
:100D3E000134E4340134E5340134E7340134EA3467
:100D4E000134ED340134F234013400340134AE3464
:100D5E000134CD340134DE340134EC340134F33457
:100D6E000134F6340134F8340134F9340134FA34F0
:100D7E000134FC340134FE340134003402340434C2
:100D8E000234093402340F34023400340134C734CF
:100D9E000134E5340134F7340134013402340734BC
:100DAE0002340B3402340D3402340E3402340F3458
:100DBE0002341234023414340234173402341B3425
:100DCE000234213402342934023400340134DD3447
:100DDE000134FA3401340A3402341434023419342E
:100DEE0002341D3402341F340234203402342234CF
:100DFE0002342434023427340234293402342F349A
:100E0E000234363402344034023400340134F234C5
:100E1E0001340E3402341B340234253402342B34A4
:100E2E0002342E340234303402343134023433344A
:100E3E000234363402343A3402343D34023444340B
:100E4E0002344B3402345834023400340134053445
:100E5E0002341E3402342B34023433340234383428
:100E6E0002343C3402343E340234403402344234D0
:100E7E000234453402344A3402344D34023453348D
:100E8E0002345F34023470340234003401341634C8
:100E9E0002342D34023439340234413402344634AF
:100EAE0002344A3402344B3402344D34023450345A
:100EBE00023453340234593402345D34023466340D
:100ECE000234723402347C3402340034013424345B
:100EDE0002343A340234473402344D34023451343D
:100EEE0002345434023456340234583402345B34EF
:100EFE00023460340234653402346F34023479348F
:100F0E0002348034023488340234003401343334F1
:100F1E0002344834023451340234573402345B34D0
:100F2E0002345E3402345F34023462340234653487
:100F3E0002346A34023470340234803402348E3413
:100F4E0002349034023494340234003401343C348C
:100F5E0002344F340234583402345E340234643472
:100F6E00023467340234683402346C3402346F3421
:100F7E000234743402347D3402349E3402349E348E
:100F8E0002349E3402349E340234CC3084008530D8
:100F9E008500F0308600213087000230FF000030DF
:100FAE008231A622873182317F228731CA00823177
:100FBE0080228731CB00B630840083308500A0308C
:100FCE008600003087000030FF0040308231A622BC
:100FDE0087310F3084008330850020308600013049
:100FEE0087000030FF0020308231A622200083319E
:020FFE00552B71
:020000040001F9
:04000E00E4FFFFFF0D
:00000001FF
